{
  "_format": "hh-sol-artifact-1",
  "contractName": "PharmSupplyChain",
  "sourceName": "contracts/PharmSupplyChain.sol",
  "abi": [
    {
      "inputs": [],
      "stateMutability": "nonpayable",
      "type": "constructor"
    },
    {
      "anonymous": false,
      "inputs": [
        {
          "indexed": true,
          "internalType": "string",
          "name": "batchId",
          "type": "string"
        },
        {
          "indexed": true,
          "internalType": "address",
          "name": "manufacturer",
          "type": "address"
        },
        {
          "indexed": false,
          "internalType": "uint256",
          "name": "expiryDate",
          "type": "uint256"
        },
        {
          "indexed": false,
          "internalType": "bytes32",
          "name": "dataHash",
          "type": "bytes32"
        }
      ],
      "name": "BatchCreated",
      "type": "event"
    },
    {
      "anonymous": false,
      "inputs": [
        {
          "indexed": true,
          "internalType": "string",
          "name": "batchId",
          "type": "string"
        },
        {
          "indexed": true,
          "internalType": "address",
          "name": "by",
          "type": "address"
        }
      ],
      "name": "BatchDeactivated",
      "type": "event"
    },
    {
      "anonymous": false,
      "inputs": [
        {
          "indexed": true,
          "internalType": "string",
          "name": "batchId",
          "type": "string"
        },
        {
          "indexed": true,
          "internalType": "address",
          "name": "from",
          "type": "address"
        },
        {
          "indexed": true,
          "internalType": "address",
          "name": "to",
          "type": "address"
        },
        {
          "indexed": false,
          "internalType": "enum PharmSupplyChain.Role",
          "name": "fromRole",
          "type": "uint8"
        },
        {
          "indexed": false,
          "internalType": "enum PharmSupplyChain.Role",
          "name": "toRole",
          "type": "uint8"
        },
        {
          "indexed": false,
          "internalType": "uint256",
          "name": "timestamp",
          "type": "uint256"
        }
      ],
      "name": "BatchTransferred",
      "type": "event"
    },
    {
      "anonymous": false,
      "inputs": [
        {
          "indexed": true,
          "internalType": "address",
          "name": "stakeholder",
          "type": "address"
        },
        {
          "indexed": false,
          "internalType": "enum PharmSupplyChain.Role",
          "name": "role",
          "type": "uint8"
        },
        {
          "indexed": false,
          "internalType": "string",
          "name": "name",
          "type": "string"
        }
      ],
      "name": "StakeholderRegistered",
      "type": "event"
    },
    {
      "inputs": [],
      "name": "admin",
      "outputs": [
        {
          "internalType": "address",
          "name": "",
          "type": "address"
        }
      ],
      "stateMutability": "view",
      "type": "function"
    },
    {
      "inputs": [
        {
          "internalType": "uint256",
          "name": "",
          "type": "uint256"
        }
      ],
      "name": "allBatchIds",
      "outputs": [
        {
          "internalType": "string",
          "name": "",
          "type": "string"
        }
      ],
      "stateMutability": "view",
      "type": "function"
    },
    {
      "inputs": [
        {
          "internalType": "uint256",
          "name": "",
          "type": "uint256"
        }
      ],
      "name": "allStakeholders",
      "outputs": [
        {
          "internalType": "address",
          "name": "",
          "type": "address"
        }
      ],
      "stateMutability": "view",
      "type": "function"
    },
    {
      "inputs": [
        {
          "internalType": "string",
          "name": "",
          "type": "string"
        }
      ],
      "name": "batches",
      "outputs": [
        {
          "internalType": "string",
          "name": "batchId",
          "type": "string"
        },
        {
          "internalType": "address",
          "name": "manufacturer",
          "type": "address"
        },
        {
          "internalType": "address",
          "name": "currentOwner",
          "type": "address"
        },
        {
          "internalType": "uint256",
          "name": "createdAt",
          "type": "uint256"
        },
        {
          "internalType": "uint256",
          "name": "expiryDate",
          "type": "uint256"
        },
        {
          "internalType": "bytes32",
          "name": "dataHash",
          "type": "bytes32"
        },
        {
          "internalType": "bytes32",
          "name": "unitsMerkleRoot",
          "type": "bytes32"
        },
        {
          "internalType": "uint256",
          "name": "totalUnits",
          "type": "uint256"
        },
        {
          "internalType": "bool",
          "name": "isActive",
          "type": "bool"
        },
        {
          "internalType": "uint8",
          "name": "transferCount",
          "type": "uint8"
        }
      ],
      "stateMutability": "view",
      "type": "function"
    },
    {
      "inputs": [
        {
          "internalType": "string",
          "name": "_batchId",
          "type": "string"
        },
        {
          "internalType": "bytes32",
          "name": "_dataHash",
          "type": "bytes32"
        },
        {
          "internalType": "uint256",
          "name": "_expiryDate",
          "type": "uint256"
        },
        {
          "internalType": "bytes32",
          "name": "_unitsMerkleRoot",
          "type": "bytes32"
        },
        {
          "internalType": "uint256",
          "name": "_totalUnits",
          "type": "uint256"
        }
      ],
      "name": "createBatch",
      "outputs": [],
      "stateMutability": "nonpayable",
      "type": "function"
    },
    {
      "inputs": [
        {
          "internalType": "string",
          "name": "_batchId",
          "type": "string"
        }
      ],
      "name": "deactivateBatch",
      "outputs": [],
      "stateMutability": "nonpayable",
      "type": "function"
    },
    {
      "inputs": [],
      "name": "getAllBatchIds",
      "outputs": [
        {
          "internalType": "string[]",
          "name": "",
          "type": "string[]"
        }
      ],
      "stateMutability": "view",
      "type": "function"
    },
    {
      "inputs": [],
      "name": "getAllStakeholders",
      "outputs": [
        {
          "internalType": "address[]",
          "name": "",
          "type": "address[]"
        }
      ],
      "stateMutability": "view",
      "type": "function"
    },
    {
      "inputs": [
        {
          "internalType": "string",
          "name": "_batchId",
          "type": "string"
        }
      ],
      "name": "getBatch",
      "outputs": [
        {
          "components": [
            {
              "internalType": "string",
              "name": "batchId",
              "type": "string"
            },
            {
              "internalType": "address",
              "name": "manufacturer",
              "type": "address"
            },
            {
              "internalType": "address",
              "name": "currentOwner",
              "type": "address"
            },
            {
              "internalType": "uint256",
              "name": "createdAt",
              "type": "uint256"
            },
            {
              "internalType": "uint256",
              "name": "expiryDate",
              "type": "uint256"
            },
            {
              "internalType": "bytes32",
              "name": "dataHash",
              "type": "bytes32"
            },
            {
              "internalType": "bytes32",
              "name": "unitsMerkleRoot",
              "type": "bytes32"
            },
            {
              "internalType": "uint256",
              "name": "totalUnits",
              "type": "uint256"
            },
            {
              "internalType": "bool",
              "name": "isActive",
              "type": "bool"
            },
            {
              "internalType": "uint8",
              "name": "transferCount",
              "type": "uint8"
            }
          ],
          "internalType": "struct PharmSupplyChain.Batch",
          "name": "",
          "type": "tuple"
        }
      ],
      "stateMutability": "view",
      "type": "function"
    },
    {
      "inputs": [],
      "name": "getBatchCount",
      "outputs": [
        {
          "internalType": "uint256",
          "name": "",
          "type": "uint256"
        }
      ],
      "stateMutability": "view",
      "type": "function"
    },
    {
      "inputs": [
        {
          "internalType": "string",
          "name": "_batchId",
          "type": "string"
        }
      ],
      "name": "getBatchHistory",
      "outputs": [
        {
          "components": [
            {
              "internalType": "address",
              "name": "from",
              "type": "address"
            },
            {
              "internalType": "address",
              "name": "to",
              "type": "address"
            },
            {
              "internalType": "uint256",
              "name": "timestamp",
              "type": "uint256"
            },
            {
              "internalType": "enum PharmSupplyChain.Role",
              "name": "fromRole",
              "type": "uint8"
            },
            {
              "internalType": "enum PharmSupplyChain.Role",
              "name": "toRole",
              "type": "uint8"
            }
          ],
          "internalType": "struct PharmSupplyChain.TransferRecord[]",
          "name": "",
          "type": "tuple[]"
        }
      ],
      "stateMutability": "view",
      "type": "function"
    },
    {
      "inputs": [
        {
          "internalType": "string",
          "name": "_batchId",
          "type": "string"
        }
      ],
      "name": "getBatchMerkleRoot",
      "outputs": [
        {
          "internalType": "bytes32",
          "name": "merkleRoot",
          "type": "bytes32"
        },
        {
          "internalType": "uint256",
          "name": "totalUnits",
          "type": "uint256"
        }
      ],
      "stateMutability": "view",
      "type": "function"
    },
    {
      "inputs": [
        {
          "internalType": "address",
          "name": "_addr",
          "type": "address"
        }
      ],
      "name": "getStakeholder",
      "outputs": [
        {
          "components": [
            {
              "internalType": "address",
              "name": "addr",
              "type": "address"
            },
            {
              "internalType": "enum PharmSupplyChain.Role",
              "name": "role",
              "type": "uint8"
            },
            {
              "internalType": "bool",
              "name": "isRegistered",
              "type": "bool"
            },
            {
              "internalType": "string",
              "name": "name",
              "type": "string"
            }
          ],
          "internalType": "struct PharmSupplyChain.Stakeholder",
          "name": "",
          "type": "tuple"
        }
      ],
      "stateMutability": "view",
      "type": "function"
    },
    {
      "inputs": [
        {
          "internalType": "address",
          "name": "_addr",
          "type": "address"
        },
        {
          "internalType": "enum PharmSupplyChain.Role",
          "name": "_role",
          "type": "uint8"
        },
        {
          "internalType": "string",
          "name": "_name",
          "type": "string"
        }
      ],
      "name": "registerStakeholder",
      "outputs": [],
      "stateMutability": "nonpayable",
      "type": "function"
    },
    {
      "inputs": [
        {
          "internalType": "address",
          "name": "",
          "type": "address"
        }
      ],
      "name": "stakeholders",
      "outputs": [
        {
          "internalType": "address",
          "name": "addr",
          "type": "address"
        },
        {
          "internalType": "enum PharmSupplyChain.Role",
          "name": "role",
          "type": "uint8"
        },
        {
          "internalType": "bool",
          "name": "isRegistered",
          "type": "bool"
        },
        {
          "internalType": "string",
          "name": "name",
          "type": "string"
        }
      ],
      "stateMutability": "view",
      "type": "function"
    },
    {
      "inputs": [
        {
          "internalType": "string",
          "name": "_batchId",
          "type": "string"
        },
        {
          "internalType": "address",
          "name": "_newOwner",
          "type": "address"
        }
      ],
      "name": "transferBatch",
      "outputs": [],
      "stateMutability": "nonpayable",
      "type": "function"
    },
    {
      "inputs": [
        {
          "internalType": "string",
          "name": "_batchId",
          "type": "string"
        }
      ],
      "name": "verifyBatch",
      "outputs": [
        {
          "internalType": "bool",
          "name": "isValid",
          "type": "bool"
        },
        {
          "internalType": "address",
          "name": "manufacturer",
          "type": "address"
        },
        {
          "internalType": "address",
          "name": "currentOwner",
          "type": "address"
        },
        {
          "internalType": "uint256",
          "name": "expiryDate",
          "type": "uint256"
        },
        {
          "internalType": "uint8",
          "name": "transferCount",
          "type": "uint8"
        },
        {
          "internalType": "bool",
          "name": "isExpired",
          "type": "bool"
        }
      ],
      "stateMutability": "view",
      "type": "function"
    }
  ],
  "bytecode": "0x60806040523480156200001157600080fd5b5060008054336001600160a01b031991821681178355604080516080810182528281526001602080830182815283850183905284518086018652600c81526b29bcb9ba32b69020b236b4b760a11b818401526060850152948752529320835181549384166001600160a01b03909116908117825591519092909183916001600160a81b03191617600160a01b836005811115620000b257620000b262000172565b021790555060408201518154901515600160a81b0260ff60a81b1990911617815560608201516001820190620000e990826200022d565b505060058054600181810183556000929092527f036b6384b5eca791c62761152d0c79bb0604c104a5fb6f4eb0703f3154bb3db00180546001600160a01b031916339081179091556040519092507f110b738ebb1be6a0003a04bc69dea2d42dce2ff6424f866e30a39749b1c24598916200016491620002f9565b60405180910390a262000348565b634e487b7160e01b600052602160045260246000fd5b634e487b7160e01b600052604160045260246000fd5b600181811c90821680620001b357607f821691505b602082108103620001d457634e487b7160e01b600052602260045260246000fd5b50919050565b601f8211156200022857600081815260208120601f850160051c81016020861015620002035750805b601f850160051c820191505b8181101562000224578281556001016200020f565b5050505b505050565b81516001600160401b0381111562000249576200024962000188565b62000261816200025a84546200019e565b84620001da565b602080601f831160018114620002995760008415620002805750858301515b600019600386901b1c1916600185901b17855562000224565b600085815260208120601f198616915b82811015620002ca57888601518255948401946001909101908401620002a9565b5085821015620002e95787850151600019600388901b60f8161c191681555b5050505050600190811b01905550565b6000600683106200031a57634e487b7160e01b600052602160045260246000fd5b50908152604060208201819052600c908201526b29bcb9ba32b69020b236b4b760a11b606082015260800190565b61228b80620003586000396000f3fe608060405234801561001057600080fd5b506004361061010b5760003560e01c8063aee46d66116100a2578063e72d7cb411610071578063e72d7cb414610263578063e906dc4214610276578063f851a440146102c9578063f9ca4274146102f4578063fc2bcabe1461031457600080fd5b8063aee46d66146101f0578063b401563b14610218578063bce069471461022b578063c07cfca91461024057600080fd5b80637ef1446a116100de5780637ef1446a14610183578063a252d8a7146101ac578063a8fabfa5146101cc578063abb52ba7146101dd57600080fd5b80631e0e5bc414610110578063290b17ec146101255780632f920d601461014e57806362afde2514610163575b600080fd5b61012361011e366004611acf565b610327565b005b610138610133366004611b0c565b6104bd565b6040516101459190611b75565b60405180910390f35b610156610569565b6040516101459190611b8f565b610176610171366004611bf8565b6105cb565b6040516101459190611c4b565b610196610191366004611acf565b6106f9565b6040516101459a99989796959493929190611c97565b6101bf6101ba366004611acf565b6107ee565b6040516101459190611d02565b600454604051908152602001610145565b6101236101eb366004611d92565b610900565b6102036101fe366004611acf565b610c3c565b60408051928352602083019190915201610145565b610123610226366004611def565b610d8c565b6102336111f4565b6040516101459190611e3d565b61025361024e366004611bf8565b6112cd565b6040516101459493929190611e9f565b610123610271366004611ee0565b611394565b610289610284366004611acf565b611638565b6040805196151587526001600160a01b0395861660208801529390941692850192909252606084015260ff166080830152151560a082015260c001610145565b6000546102dc906001600160a01b031681565b6040516001600160a01b039091168152602001610145565b610307610302366004611acf565b6117b5565b6040516101459190611f44565b6102dc610322366004611b0c565b611939565b806002816040516103389190611ff4565b9081526040519081900360200190206008015460ff166103735760405162461bcd60e51b815260040161036a90612010565b60405180910390fd5b600133600090815260016020526040902054600160a01b900460ff1660058111156103a0576103a0611c13565b14806103df5750336001600160a01b03166002836040516103c19190611ff4565b908152604051908190036020019020600101546001600160a01b0316145b6104465760405162461bcd60e51b815260206004820152603260248201527f4f6e6c792061646d696e206f72206f726967696e616c206d616e7566616374756044820152717265722063616e206465616374697661746560701b606482015260840161036a565b60006002836040516104589190611ff4565b908152604051908190036020018120600801805492151560ff19909316929092179091553390610489908490611ff4565b604051908190038120907ff9862d32084cb85bdf0041e92067b3352f325c60b5a68369fab34ebc971d890990600090a35050565b600481815481106104cd57600080fd5b9060005260206000200160009150905080546104e890612056565b80601f016020809104026020016040519081016040528092919081815260200182805461051490612056565b80156105615780601f1061053657610100808354040283529160200191610561565b820191906000526020600020905b81548152906001019060200180831161054457829003601f168201915b505050505081565b606060058054806020026020016040519081016040528092919081815260200182805480156105c157602002820191906000526020600020905b81546001600160a01b031681526001909101906020018083116105a3575b5050505050905090565b6040805160808082018352600080835260208084018290528385018290526060808501526001600160a01b038681168352600182529185902085519384019095528454918216835292939192830190600160a01b900460ff16600581111561063557610635611c13565b600581111561064657610646611c13565b81528154600160a81b900460ff161515602082015260018201805460409092019161067090612056565b80601f016020809104026020016040519081016040528092919081815260200182805461069c90612056565b80156106e95780601f106106be576101008083540402835291602001916106e9565b820191906000526020600020905b8154815290600101906020018083116106cc57829003601f168201915b5050505050815250509050919050565b805160208183018101805160028252928201919093012091528054819061071f90612056565b80601f016020809104026020016040519081016040528092919081815260200182805461074b90612056565b80156107985780601f1061076d57610100808354040283529160200191610798565b820191906000526020600020905b81548152906001019060200180831161077b57829003601f168201915b50505060018401546002850154600386015460048701546005880154600689015460078a01546008909a015498996001600160a01b03968716999590961697509295509093909260ff808216916101009004168a565b60606003826040516108009190611ff4565b9081526020016040518091039020805480602002602001604051908101604052809291908181526020016000905b828210156108f55760008481526020908190206040805160a0810182526004860290920180546001600160a01b039081168452600182015416938301939093526002830154908201526003820154909190606083019060ff16600581111561089857610898611c13565b60058111156108a9576108a9611c13565b81526020016003820160019054906101000a900460ff1660058111156108d1576108d1611c13565b60058111156108e2576108e2611c13565b815250508152602001906001019061082e565b505050509050919050565b33600090815260016020526040902054600160a81b900460ff166109365760405162461bcd60e51b815260040161036a90612090565b600233600090815260016020526040902054600160a01b900460ff16600581111561096357610963611c13565b146109be5760405162461bcd60e51b815260206004820152602560248201527f4f6e6c79206d616e756661637475726572732063616e20637265617465206261604482015264746368657360d81b606482015260840161036a565b6002856040516109ce9190611ff4565b9081526040519081900360200190206008015460ff1615610a315760405162461bcd60e51b815260206004820152601760248201527f426174636820494420616c726561647920657869737473000000000000000000604482015260640161036a565b428311610a8a5760405162461bcd60e51b815260206004820152602160248201527f4578706972792064617465206d75737420626520696e207468652066757475726044820152606560f81b606482015260840161036a565b60408051610140810182528681523360208201819052818301524260608201526080810185905260a0810186905260c0810184905260e08101839052600161010082015260006101208201529051600290610ae6908890611ff4565b90815260405190819003602001902081518190610b039082612125565b506020820151600180830180546001600160a01b039384166001600160a01b03199182161790915560408501516002850180549190941691161790915560608301516003830155608083015160048084019190915560a0840151600584015560c0840151600684015560e0840151600784015561010080850151600890940180546101209096015160ff1690910261ff00199415159490941661ffff199095169490941792909217909255805491820181556000527f8a35acfbc15ff81a39ae7d344fd709f28e8600b4aa8c65c6b64bfe7fe36bd19b01610be48682612125565b506040513390610bf5908790611ff4565b6040805191829003822086835260208301889052917faadd6c0dcf8041e037624acb0d2ae0b13c677d739cb86898592dcd69f240f1eb910160405180910390a35050505050565b6000806000600284604051610c519190611ff4565b908152602001604051809103902060405180610140016040529081600082018054610c7b90612056565b80601f0160208091040260200160405190810160405280929190818152602001828054610ca790612056565b8015610cf45780601f10610cc957610100808354040283529160200191610cf4565b820191906000526020600020905b815481529060010190602001808311610cd757829003601f168201915b505050918352505060018201546001600160a01b03908116602083015260028301541660408201526003820154606082015260048201546080820152600582015460a0820152600682015460c080830191909152600783015460e08084019190915260089093015460ff8082161515610100808601919091529091041661012090920191909152820151910151909590945092505050565b33600090815260016020526040902054600160a81b900460ff16610dc25760405162461bcd60e51b815260040161036a90612090565b81600281604051610dd39190611ff4565b9081526040519081900360200190206008015460ff16610e055760405162461bcd60e51b815260040161036a90612010565b82336001600160a01b0316600282604051610e209190611ff4565b908152604051908190036020019020600201546001600160a01b031614610e9c5760405162461bcd60e51b815260206004820152602a60248201527f4f6e6c792063757272656e74206f776e65722063616e20706572666f726d20746044820152693434b99030b1ba34b7b760b11b606482015260840161036a565b6001600160a01b038316600090815260016020526040902054600160a81b900460ff16610f1d5760405162461bcd60e51b815260206004820152602960248201527f526563697069656e74206973206e6f742061207265676973746572656420737460448201526830b5b2b437b63232b960b91b606482015260840161036a565b33600090815260016020526040808220546001600160a01b038616835291205460ff600160a01b9283900481169290910416610f598282611963565b610fc25760405162461bcd60e51b815260206004820152603460248201527f496e76616c6964207472616e736665723a20646f6573206e6f7420666f6c6c6f6044820152733b9039bab838363c9031b430b4b71037b93232b960611b606482015260840161036a565b600386604051610fd29190611ff4565b90815260200160405180910390206040518060a00160405280336001600160a01b03168152602001876001600160a01b0316815260200142815260200184600581111561102157611021611c13565b815260200183600581111561103857611038611c13565b90528154600181810184556000938452602093849020835160049093020180546001600160a01b039384166001600160a01b0319918216178255948401518183018054919094169516949094179091556040820151600284015560608201516003840180549394939192909160ff1916908360058111156110bb576110bb611c13565b0217905550608082015160038201805461ff0019166101008360058111156110e5576110e5611c13565b02179055505050846002876040516110fd9190611ff4565b908152602001604051809103902060020160006101000a8154816001600160a01b0302191690836001600160a01b0316021790555060016002876040516111449190611ff4565b908152604051908190036020019020600801805460019061116f90849060ff610100909104166121e5565b92506101000a81548160ff021916908360ff160217905550846001600160a01b0316336001600160a01b0316876040516111a99190611ff4565b60405180910390207f82aca75da8706795bde17eb8c4f911c9c898626a09b005d4296012713daf30798585426040516111e49392919061220c565b60405180910390a4505050505050565b60606004805480602002602001604051908101604052809291908181526020016000905b828210156112c457838290600052602060002001805461123790612056565b80601f016020809104026020016040519081016040528092919081815260200182805461126390612056565b80156112b05780601f10611285576101008083540402835291602001916112b0565b820191906000526020600020905b81548152906001019060200180831161129357829003601f168201915b505050505081526020019060010190611218565b50505050905090565b6001602081905260009182526040909120805491810180546001600160a01b0384169360ff600160a01b8204811694600160a81b9092041692909161131190612056565b80601f016020809104026020016040519081016040528092919081815260200182805461133d90612056565b801561138a5780601f1061135f5761010080835404028352916020019161138a565b820191906000526020600020905b81548152906001019060200180831161136d57829003601f168201915b5050505050905084565b600133600090815260016020526040902054600160a01b900460ff1660058111156113c1576113c1611c13565b146114195760405162461bcd60e51b815260206004820152602260248201527f4f6e6c792061646d696e2063616e20706572666f726d2074686973206163746960448201526137b760f11b606482015260840161036a565b6001600160a01b038316600090815260016020526040902054600160a81b900460ff16156114895760405162461bcd60e51b815260206004820152601e60248201527f5374616b65686f6c64657220616c726561647920726567697374657265640000604482015260640161036a565b600082600581111561149d5761149d611c13565b036114d95760405162461bcd60e51b815260206004820152600c60248201526b496e76616c696420726f6c6560a01b604482015260640161036a565b6040518060800160405280846001600160a01b0316815260200183600581111561150557611505611c13565b81526001602080830182905260409283018590526001600160a01b038088166000908152928252929091208351815493166001600160a01b0319841681178255918401519092909183916001600160a81b03191617600160a01b83600581111561157157611571611c13565b021790555060408201518154901515600160a81b0260ff60a81b19909116178155606082015160018201906115a69082612125565b5050600580546001810182556000919091527f036b6384b5eca791c62761152d0c79bb0604c104a5fb6f4eb0703f3154bb3db00180546001600160a01b0319166001600160a01b0386169081179091556040519091507f110b738ebb1be6a0003a04bc69dea2d42dce2ff6424f866e30a39749b1c245989061162b9085908590612235565b60405180910390a2505050565b60008060008060008060006002886040516116539190611ff4565b90815260200160405180910390206040518061014001604052908160008201805461167d90612056565b80601f01602080910402602001604051908101604052809291908181526020018280546116a990612056565b80156116f65780601f106116cb576101008083540402835291602001916116f6565b820191906000526020600020905b8154815290600101906020018083116116d957829003601f168201915b505050918352505060018201546001600160a01b03908116602083015260028301541660408201526003820154606082015260048201546080820152600582015460a0820152600682015460c0820152600782015460e082015260089091015460ff8082161515610100808501919091529182900416610120909201919091528101519091508015611789575080515115155b60208201516040830151608084015161012090940151929b919a50985091965094504286109350915050565b604080516101408101825260608082526000602083018190528284018190529082018190526080820181905260a0820181905260c0820181905260e0820181905261010082018190526101208201529051600290611814908490611ff4565b90815260200160405180910390206040518061014001604052908160008201805461183e90612056565b80601f016020809104026020016040519081016040528092919081815260200182805461186a90612056565b80156118b75780601f1061188c576101008083540402835291602001916118b7565b820191906000526020600020905b81548152906001019060200180831161189a57829003601f168201915b505050918352505060018201546001600160a01b03908116602083015260028301541660408201526003820154606082015260048201546080820152600582015460a0820152600682015460c0820152600782015460e082015260089091015460ff808216151561010080850191909152909104166101209091015292915050565b6005818154811061194957600080fd5b6000918252602090912001546001600160a01b0316905081565b6000600283600581111561197957611979611c13565b1480156119975750600382600581111561199557611995611c13565b145b156119a457506001611a26565b60038360058111156119b8576119b8611c13565b1480156119d6575060048260058111156119d4576119d4611c13565b145b156119e357506001611a26565b60048360058111156119f7576119f7611c13565b148015611a1557506005826005811115611a1357611a13611c13565b145b15611a2257506001611a26565b5060005b92915050565b634e487b7160e01b600052604160045260246000fd5b600082601f830112611a5357600080fd5b813567ffffffffffffffff80821115611a6e57611a6e611a2c565b604051601f8301601f19908116603f01168101908282118183101715611a9657611a96611a2c565b81604052838152866020858801011115611aaf57600080fd5b836020870160208301376000602085830101528094505050505092915050565b600060208284031215611ae157600080fd5b813567ffffffffffffffff811115611af857600080fd5b611b0484828501611a42565b949350505050565b600060208284031215611b1e57600080fd5b5035919050565b60005b83811015611b40578181015183820152602001611b28565b50506000910152565b60008151808452611b61816020860160208601611b25565b601f01601f19169290920160200192915050565b602081526000611b886020830184611b49565b9392505050565b6020808252825182820181905260009190848201906040850190845b81811015611bd05783516001600160a01b031683529284019291840191600101611bab565b50909695505050505050565b80356001600160a01b0381168114611bf357600080fd5b919050565b600060208284031215611c0a57600080fd5b611b8882611bdc565b634e487b7160e01b600052602160045260246000fd5b60068110611c4757634e487b7160e01b600052602160045260246000fd5b9052565b602080825282516001600160a01b031682820152820151600090611c726040840182611c29565b506040830151151560608301526060830151608080840152611b0460a0840182611b49565b6000610140808352611cab8184018e611b49565b6001600160a01b039c8d1660208501529a909b166040830152506060810197909752608087019590955260a086019390935260c085019190915260e0840152151561010083015260ff166101209091015292915050565b602080825282518282018190526000919060409081850190868401855b82811015611d8557815180516001600160a01b0390811686528782015116878601528581015186860152606080820151611d5b82880182611c29565b505060809081015190611d7086820183611c29565b505060a0939093019290850190600101611d1f565b5091979650505050505050565b600080600080600060a08688031215611daa57600080fd5b853567ffffffffffffffff811115611dc157600080fd5b611dcd88828901611a42565b9860208801359850604088013597606081013597506080013595509350505050565b60008060408385031215611e0257600080fd5b823567ffffffffffffffff811115611e1957600080fd5b611e2585828601611a42565b925050611e3460208401611bdc565b90509250929050565b6000602080830181845280855180835260408601915060408160051b870101925083870160005b82811015611e9257603f19888603018452611e80858351611b49565b94509285019290850190600101611e64565b5092979650505050505050565b6001600160a01b0385168152611eb86020820185611c29565b8215156040820152608060608201526000611ed66080830184611b49565b9695505050505050565b600080600060608486031215611ef557600080fd5b611efe84611bdc565b9250602084013560068110611f1257600080fd5b9150604084013567ffffffffffffffff811115611f2e57600080fd5b611f3a86828701611a42565b9150509250925092565b6020815260008251610140806020850152611f63610160850183611b49565b91506020850151611f7f60408601826001600160a01b03169052565b5060408501516001600160a01b03811660608601525060608501516080850152608085015160a085015260a085015160c085015260c085015160e085015260e0850151610100818187015280870151915050610120611fe18187018315159052565b9095015160ff1693019290925250919050565b60008251612006818460208701611b25565b9190910192915050565b60208082526026908201527f426174636820646f6573206e6f74206578697374206f722069732064656163746040820152651a5d985d195960d21b606082015260800190565b600181811c9082168061206a57607f821691505b60208210810361208a57634e487b7160e01b600052602260045260246000fd5b50919050565b60208082526026908201527f43616c6c6572206973206e6f7420612072656769737465726564207374616b656040820152653437b63232b960d11b606082015260800190565b601f82111561212057600081815260208120601f850160051c810160208610156120fd5750805b601f850160051c820191505b8181101561211c57828155600101612109565b5050505b505050565b815167ffffffffffffffff81111561213f5761213f611a2c565b6121538161214d8454612056565b846120d6565b602080601f83116001811461218857600084156121705750858301515b600019600386901b1c1916600185901b17855561211c565b600085815260208120601f198616915b828110156121b757888601518255948401946001909101908401612198565b50858210156121d55787850151600019600388901b60f8161c191681555b5050505050600190811b01905550565b60ff8181168382160190811115611a2657634e487b7160e01b600052601160045260246000fd5b6060810161221a8286611c29565b6122276020830185611c29565b826040830152949350505050565b61223f8184611c29565b604060208201526000611b046040830184611b4956fea2646970667358221220c0c8eb7364cdcd812d008594b301465b9d0167bd37e008df982bd4b4917bea4464736f6c63430008130033",
  "linkReferences": {},
  "deployedLinkReferences": {}
}